:020000020000FC
:1000000008E00EBF0FEF0DBF22241CE214B913E568
:100010001CBDE0E2F1E02192208220922401EF93C6
:10002000FF93E0E2F1E003E0008311E011830E941E
:10003000AE000E94BB0008E00F930E9480000F9169
:100040000A95D9F7FF91EF91FFCFEF93FF930E94AD
:100050003500FEB7EDB725812F930E9441002F9107
:100060000E947000FF91EF910895FEB7EDB71F93C6
:1000700010850E9455001F930E9441001F911F91FF
:100080000895FEB7EDB71F932F93138128E0110F4A
:1000900018F40E945C0002C00E9466002A95B9F71D
:1000A0000E945C002F911F9108953C9A0E947A0053
:1000B0003D9A0E947A0008953C980E947A003D98EB
:1000C0000E947A003D9A0E947A0008953C9A0E940C
:1000D0007A003D980E947A003D9A0E947A00089525
:1000E0003C9A0E947A003D980E947A003C980E94B7
:1000F0007A0008950F9300EA0A95F1F70F91089599
:10010000FF93EF930F931F93E0E0F1E001E011E024
:10011000110F110FE10FF21D0E94D50001810F9305
:100120000E94FE000F9100810F930E94FE000F912C
:1001300002810F930E94FE000F9110951F930E9461
:10014000FE001F910E94FA001F910F91EF91FF9105
:10015000089502E015E00E94DC000895FF93EF93FC
:100160000F93F1E0E0E000E221920A95E9F70F91A8
:10017000EF91FF910895FF93EF930F93F1E0E0E289
:1001800001911191FF93EF93F1E0E0E0110F110F56
:10019000E10FF21D0E94D5000281102B1283EF9116
:1001A000FF910F91EF91FF91089510E8003019F041
:1001B00016950A95E9F7089522272F930E94FE00CD
:1001C0002F912F930E94FE002F9120E8003019F00C
:1001D00026950A95E9F72F930E94FE002F9120E8BB
:1001E000103021F026951A95E9F720952F930E945B
:1001F000FE002F912298229A22980895FF93EF9360
:100200000F93FEB7EDB706810EBD0DB507FFFDCF0D
:080210000F91EF91FF91089599
:00000001FF
