:020000020000FC
:100000000C9404000C94B80008E00EBF0FEF0DBF75
:1000100022241CE214B913E51CBD01E00DBB03E072
:100020000093690013EA2EE01F932F930E945D0056
:100030002F911F9123E81F932F930E945D002F9112
:100040001F9121E01F932F930E945D002F911F911C
:1000500025E11F932F930E945D002F911F912FE0A8
:100060001F932F930E945D002F911F912FEF1F93DD
:100070002F930E945D002F911F91E0E2F1E0219209
:100080002082E2E2F1E02192208220922401EF938B
:10009000FF93E0E2F1E003E0008315E01183E2E288
:1000A000F1E001E0008317E011830E94FC000E9450
:1000B00009017894FF91EF91FFCFEF93FF930E9496
:1000C0006D00FEB7EDB725812F930E9479002F9127
:1000D0000E94A800FF91EF910895FEB7EDB71F931E
:1000E00010850E948D001F930E9479001F911F911F
:1000F0000895FEB7EDB71F932F93138128E0110FDA
:1001000018F40E94940002C00E949E002A95B9F73C
:100110000E9494002F911F9108953C9A0E94B20072
:100120003D9A0E94B20008953C980E94B2003D980A
:100130000E94B2003D9A0E94B20008953C9A0E942B
:10014000B2003D980E94B2003D9A0E94B20008950C
:100150003C9A0E94B2003D980E94B2003C980E94D6
:10016000B20008950F9300EA0A95F1F70F910895F0
:10017000FF93EF930F931F93E0E0F1E000912401D0
:1001800010912401083011F400271127110F110FCD
:10019000E10FF21D0E9436012A9801810F930E94FF
:1001A0003D010F9100810F930E943D010F9102814B
:1001B0000F930E943D010F9110951F930E943D01E6
:1001C0001F912A9A009124010395009324011F9105
:1001D0000F91EF91FF9118950F931F932F9305E0C7
:1001E00015E025E02A95F1F71A95D9F70A95C1F798
:1001F0002F911F910F910895FF93EF930F93F1E0CB
:10020000E0E000E221920A95E9F70F91EF91FF916A
:100210000895FF93EF930F93F1E0E0E201911191C4
:10022000FF93EF93F1E0E0E0110F110FE10FF21DEA
:100230000E9436010281102B1283EF91FF91F1E0B1
:10024000E2E201911191FF93EF93F1E0E0E0110FF1
:10025000110FE10FF21D0E9436010181102B118355
:10026000EF91FF910F91EF91FF91089510E8003009
:1002700019F016950A95E9F70895FF93EF930F93F8
:10028000FEB7EDB706810EBD0DB507FFFDCF0F918F
:06029000EF91FF910895BB
:00000001FF
