:020000020000FC
:020000002FC00F
:040004000C947900DF
:1000600008E00EBF0FEF0DBF22241CE214B913E508
:100070001CBD01E00DBB03E000936900789413EA16
:100080002EE01F932F930E949D002F911F9123E834
:100090001F932F930E949D002F911F9121E01F938A
:1000A0002F930E949D002F911F9125E11F932F9365
:1000B0000E949D002F911F912FE01F932F930E946C
:1000C0009D002F911F912FEF1F932F930E949D0052
:1000D0002F911F91EF93FF93E0E2F1E003E00083A3
:1000E00016E011830E940D010E941A01FF91EF9109
:1000F000FFCF0F931F93E0E0F1E048E00FE711819D
:100100001F930E945D011F9112811F930E945D0148
:100110001F9113811F930E945D011F910F930E94F5
:100120005D010F91069514E00E945901E10FF21D47
:100130004A9529F71F910F911895EF93FF930E940D
:10014000AD00FEB7EDB725812F930E94B9002F9126
:100150000E94E800FF91EF910895FEB7EDB71F935D
:1001600010850E94CD001F930E94B9001F911F911E
:100170000895FEB7EDB71F932F93138128E0110F59
:1001800018F40E94D40002C00E94DE002A95B9F73C
:100190000E94D4002F911F9108953C9A0E94F20072
:1001A0003D9A0E94F20008953C980E94F2003D980A
:1001B0000E94F2003D9A0E94F20008953C9A0E942B
:1001C000F2003D980E94F2003D9A0E94F2000895CC
:1001D0003C9A0E94F2003D980E94F2003C980E94D6
:1001E000F20008950F9300EA0A95F1F70F91089530
:1001F0000F931F932F9300E31FEF2FEF2A95F1F733
:100200001A95D9F70A95C1F72F911F910F9108956B
:1002100002E015E00E943B010895FF93EF930F93D6
:10022000F1E0E0E000E221920A95E9F70F91EF9109
:10023000FF910895FF93EF930F93FF27E0E2019161
:100240001191FF93EF93F1E0E0E0110F110FE10F37
:10025000F21D0E9434010281102B1283EF91FF9155
:100260000F91EF91FF91089510E8003019F0169565
:100270000A95E9F7089522272F930E945D012F9197
:100280002F930E945D012F9120E8003019F02695F0
:100290000A95E9F72F930E945D012F9120E8103015
:1002A00021F026951A95E9F720952F930E945D017C
:1002B0002F912298229A229808950F93FEB7EDB7B6
:0E02C00004810EBD0DB507FFFDCF0F9108950F
:00000001FF
