:020000020000FC
:040000000C9422003A
:100040000C94AF0008E00EBF0FEF0DBF22241CE29E
:1000500014B910E51CBD10E01DBD00E004BD03E0B7
:1000600005BD01E000936E00E0E8F1E021922082FE
:10007000E2E8F1E02192208220928401EF93FF9345
:10008000E0E8F1E004E000831FE01183E2E8F1E042
:100090000FE0008310E011830E9401010E940E0115
:1000A000FF91EF917894FFCFEF93FF930E9464004C
:1000B000FEB7EDB725812F930E9470002F910E940B
:1000C0009F00FF91EF910895FEB7EDB71F93108544
:1000D0000E9484001F930E9470001F911F91089539
:1000E000FEB7EDB71F932F93138128E0110F18F47B
:1000F0000E948B0002C00E9495002A95B9F70E94C9
:100100008B002F911F9108953C9A0E94A9003D9A5F
:100110000E94A90008953C980E94A9003D980E9461
:10012000A9003D9A0E94A90008953C9A0E94A90046
:100130003D980E94A9003D9A0E94A90008953C9A0A
:100140000E94A9003D980E94A9003C980E94A90025
:1001500008950F9300EA0A95F1F70F9108950F9310
:100160000FB70F93FF93EF931F932F933F93E0E00D
:10017000F1E010E6E10FF21D009184010770102FED
:10018000110F110FE10FF21D0E9448012A9824E07F
:1001900000810F930E944F010F9101810F930E94E4
:1001A0004F010F9102810F930E944F010F91109503
:1001B0001F930E944F011F91109530E2E31BF2093B
:1001C0002A9531F72A9A00918401039500938401BE
:1001D0003F912F911F91EF91FF910F910FBF0F91C1
:1001E00018950F931F932F9306E916E926E92A9590
:1001F000F1F71A95D9F70A95C1F72F911F910F9131
:100200000895FF93EF930F93F1E0E0E000E821926F
:100210000A95E9F70F91EF91FF910895FF93EF93FE
:100220000F931F932F93F1E0E0E801911081FF936A
:10023000EF930E9433010281102B1283EF91FF9103
:10024000F1E0E2E801911081FF93EF930E94330106
:100250000081102B1083EF91FF912F911F910F912F
:10026000EF91FF910895F1E0E0E0183020F0185090
:1002700020E4E20FF21D110F110FE10FF21D083003
:1002800020F0085020E2E20FF21D0E94480108957C
:1002900010E8003019F016950A95E9F70895FF93D4
:1002A000EF930F93FEB7EDB706810EBD0DB507FFB7
:0A02B000FDCF0F91EF91FF9108952B
:00000001FF
