:020000020000FC
:100000000C9404000C94B30008E00EBF0FEF0DBF7A
:1000100022241CE214B913E51CBD01E00DBB03E072
:100020000093690013EA2EE01F932F930E9458005B
:100030002F911F9123E81F932F930E9458002F9117
:100040001F9121E01F932F930E9458002F911F9121
:1000500025E11F932F930E9458002F911F912FE0AD
:100060001F932F930E9458002F911F912FEF1F93E2
:100070002F930E9458002F911F91E0E8F1E0219208
:100080002082E2E8F1E02192208220928401EF9325
:10009000FF93E0E8F1E008E0008318E011830E949C
:1000A00009010E941601FF91EF910E94B300FFCF5A
:1000B000EF93FF930E946800FEB7EDB725812F9361
:1000C0000E9474002F910E94A300FF91EF91089568
:1000D000FEB7EDB71F9310850E9488001F930E9402
:1000E00074001F911F910895FEB7EDB71F932F93D2
:1000F000138128E0110F18F40E948F0002C00E94A3
:1001000099002A95B9F70E948F002F911F910895A9
:100110003C9A0E94AD003D9A0E94AD0008953C9823
:100120000E94AD003D980E94AD003D9A0E94AD0036
:1001300008953C9A0E94AD003D980E94AD003D9A02
:100140000E94AD0008953C9A0E94AD003D980E9427
:10015000AD003C980E94AD0008950F9300EA0A9507
:10016000F1F70F910895FF93EF930F931F932F9340
:100170003F93E0E0F1E010E6E10FF21D0091840111
:100180001091840100E010E0083011F400271127DD
:10019000110F110FE10FF21D0E9440012A9824E077
:1001A00001810F930E9447010F9100810F930E94DC
:1001B00047010F9102810F930E9447010F91109503
:1001C0001F930E9447011F91109530E2E31BF20933
:1001D0002A9531F72A9A00918401039500938401AE
:1001E0003F912F911F910F91EF91FF910E94F90084
:1001F00008950F931F932F9306E916E926E92A9590
:10020000F1F71A95D9F70A95C1F72F911F910F9120
:100210000895FF93EF930F93F1E0E0E000E821925F
:100220000A95E9F70F91EF91FF910895FF93EF93EE
:100230000F931F932F93F1E0E0E801911081FF935A
:10024000EF93F1E0E0E0183020F0185020E4E20FE6
:10025000F21D110F110FE10FF21D083020F00850B0
:1002600020E2E20FF21D0E9440010281102B128356
:10027000EF91FF912F911F910F91EF91FF910895B1
:1002800010E8003019F016950A95E9F70895FF93E4
:10029000EF930F93FEB7EDB706810EBD0F91EF916F
:0402A000FF9108952D
:00000001FF
