:020000020000FC
:040000000C9422003A
:100040000C94AD0008E00EBF0FEF0DBF22241CE2A0
:1000500014B913E51CBD00E004BD05E005BD01E0D9
:1000600000936E00E0E8F1E021922082E2E8F1E006
:100070002192208220928401EF93FF93E0E8F1E047
:1000800004E000831FE01183E2E8F1E00FE0008369
:1000900010E011830E9403010E941001FF91EF9173
:1000A0007894FFCFEF93FF930E946200FEB7EDB705
:1000B00025812F930E946E002F910E949D00FF9139
:1000C000EF910895FEB7EDB71F9310850E9482004F
:1000D0001F930E946E001F911F910895FEB7EDB708
:1000E0001F932F93138128E0110F18F40E948900A9
:1000F00002C00E9493002A95B9F70E9489002F91AF
:100100001F9108953C9A0E94A7003D9A0E94A70063
:1001100008953C980E94A7003D980E94A7003D9A30
:100120000E94A70008953C9A0E94A7003D980E9453
:10013000A7003D9A0E94A70008953C9A0E94A7003C
:100140003D980E94A7003C980E94A70008950F9335
:1001500000EA0A95F1F70F9108950F930FB70F93E7
:10016000FF93EF931F932F933F93E0E0F1E010E6AE
:10017000E10FF21D0091840110918401083011F407
:1001800000271127110F110FE10FF21D0E944A01E4
:100190002A9824E000810F930E9451010F91018160
:1001A0000F930E9451010F9102810F930E94510100
:1001B0000F9110951F930E9451011F91109530E2ED
:1001C000E31BF2092A9531F72A9A009184010395DD
:1001D000009384013F912F911F91EF91FF910F9117
:1001E0000FBF0F9118950F931F932F9306E916E9F0
:1001F00026E92A95F1F71A95D9F70A95C1F72F91B3
:100200001F910F910895FF93EF930F93F1E0E0E0BA
:1002100000E821920A95E9F70F91EF91FF91089577
:10022000FF93EF930F931F932F93F1E0E0E8019179
:100230001081FF93EF930E9435010281102B1283EE
:10024000EF91FF91F1E0E2E801911081FF93EF93CC
:100250000E9435010081102B1083EF91FF912F91A7
:100260001F910F91EF91FF910895F1E0E0E01830B8
:1002700020F0185020E4E20FF21D110F110FE10FD2
:10028000F21D083020F0085020E2E20FF21D0E941B
:100290004A01089510E8003019F016950A95E9F71B
:1002A0000895FF93EF930F93FEB7EDB706810EBD50
:0E02B0000DB507FFFDCF0F91EF91FF9108955F
:00000001FF
