:020000020000FC
:040000000C9412004A
:100020000C94A00008E00EBF0FEF0DBF22241CE2CD
:1000300014B913E51CBD03E004BD00E005BD00E2FA
:1000400005BD03E003E000936E00E0E8F1E02192DB
:100050002082E2E8F1E02192208220928401EF9355
:10006000FF93E0E8F1E004E000831FE01183E2E8A1
:10007000F1E00FE0008310E011830E94F2000E9483
:10008000FF00FF91EF917894FFCFEF93FF930E94D1
:100090005500FEB7EDB725812F930E9461002F9187
:1000A0000E949000FF91EF910895FEB7EDB71F9366
:1000B00010850E9475001F930E9461001F911F917F
:1000C0000895FEB7EDB71F932F93138128E0110F0A
:1000D00018F40E947C0002C00E9486002A95B9F79D
:1000E0000E947C002F911F9108953C9A0E949A00D3
:1000F0003D9A0E949A0008953C980E949A003D986B
:100100000E949A003D9A0E949A0008953C9A0E948B
:100110009A003D980E949A003D9A0E949A00089584
:100120003C9A0E949A003D980E949A003C980E9436
:100130009A0008950F9300EA0A95F1F70F91089538
:10014000FF93EF930F931F932F933F93E0E0F1E022
:1001500010E6E10FF21D0091840110918401083036
:1001600011F400271127110F110FE10FF21D0E944A
:1001700039012A9824E000810F930E9440010F91D9
:1001800001810F930E9440010F9102810F930E9401
:1001900040010F9110951F930E9440011F911095EF
:1001A00030E2E31BF2092A9531F72A9A0091840183
:1001B0000395009384013F912F911F910F91EF912F
:1001C000FF9118950F931F932F9306E916E926E9DF
:1001D0002A95F1F71A95D9F70A95C1F72F911F9132
:1001E0000F910895FF93EF930F93F1E0E0E000E8A3
:1001F00021920A95E9F70F91EF91FF910895FF93EE
:10020000EF930F931F932F93F1E0E0E8019110819A
:10021000FF93EF930E9424010281102B1283EF9130
:10022000FF91F1E0E2E801911081FF93EF930E94CA
:1002300024010081102B1083EF91FF912F911F91CA
:100240000F91EF91FF910895F1E0E0E0183020F078
:10025000185020E4E20FF21D110F110FE10FF21DF3
:10026000083020F0085020E2E20FF21D0E94390110
:10027000089510E8003019F016950A95E9F70895E9
:10028000FF93EF930F93FEB7EDB706810EBD0DB54B
:0C02900007FFFDCF0F91EF91FF91089543
:00000001FF
