:020000020000FC
:100000000C9404000C94BC0008E00EBF0FEF0DBF71
:1000100022241CE214B913E51CBD01E00DBB03E072
:100020000093690013EA2EE01F932F930E94610052
:100030002F911F9123E81F932F930E9461002F910E
:100040001F9121E01F932F930E9461002F911F9118
:1000500025E11F932F930E9461002F911F912FE0A4
:100060001F932F930E9461002F911F912FEF1F93D9
:100070002F930E9461002F911F91E0E2F1E0219205
:100080002082E2E2F1E02192208220922401EF938B
:10009000FF93E0E2F1E004E0008315E01183E2E287
:1000A000F1E001E0008317E011830E9400010E944B
:1000B0000D01FF91EF9130E20E94BC003A95E1F70B
:1000C000FACFEF93FF930E947100FEB7EDB7258141
:1000D0002F930E947D002F910E94AC00FF91EF9121
:1000E0000895FEB7EDB71F9310850E9491001F93EE
:1000F0000E947D001F911F910895FEB7EDB71F93D9
:100100002F93138128E0110F18F40E94980002C069
:100110000E94A2002A95B9F70E9498002F911F9182
:1001200008953C9A0E94B6003D9A0E94B600089538
:100130003C980E94B6003D980E94B6003D9A0E94ED
:10014000B60008953C9A0E94B6003D980E94B60001
:100150003D9A0E94B60008953C9A0E94B6003D98D0
:100160000E94B6003C980E94B60008950F9300EAE2
:100170000A95F1F70F910895FF93EF930F931F9353
:10018000E0E0F1E00091240110912401083011F425
:1001900000271127110F110FE10FF21D0E943A01E4
:1001A0002A9801810F930E9441010F9100810F93C2
:1001B0000E9441010F9102810F930E9441010F9112
:1001C00010951F930E9441011F912A9A00912401CA
:1001D0000395009324011F910F91EF91FF910895D2
:1001E0000F931F932F9306E916E926E92A95F1F755
:1001F0001A95D9F70A95C1F72F911F910F9108957C
:10020000FF93EF930F93F1E0E0E000E221920A9573
:10021000E9F70F91EF91FF910895FF93EF930F93FB
:10022000F1E0E0E201911191FF93EF93F1E0E0E062
:10023000110F110FE10FF21D0E943A010281102BE4
:100240001283EF91FF91F1E0E2E201911191FF93AE
:10025000EF93F1E0E0E0110F110FE10FF21D0E94AA
:100260003A010181102B1183EF91FF910F91EF91D2
:10027000FF91089510E8003019F016950A95E9F7F6
:100280000895FF93EF930F93FEB7EDB706810EBD70
:0E0290000DB507FFFDCF0F91EF91FF9108957F
:00000001FF
