:020000020000FC
:1000000008E00EBF0FEF0DBF22241CE214B913E568
:100010001CBDE0E2F1E02192208220922401EF93C6
:10002000FF93E0E2F1E002E0008310E011830E9420
:10003000AE000E94BB0008E00E947E000A95E1F736
:10004000FF91EF91FFCFEF93FF930E943300FEB734
:10005000EDB725812F930E943F002F910E946E00E3
:10006000FF91EF910895FEB7EDB71F9310850E94A1
:1000700053001F930E943F001F911F910895FEB7E8
:10008000EDB71F932F93138128E0110F18F40E94EE
:100090005A0002C00E9464002A95B9F70E945A00D3
:1000A0002F911F9108953C9A0E9478003D9A0E94DA
:1000B000780008953C980E9478003D980E9478004E
:1000C0003D9A0E94780008953C9A0E9478003D98DD
:1000D0000E9478003D9A0E94780008953C9A0E9400
:1000E00078003D980E9478003C980E94780008951E
:1000F0000F9300EA0A95F1F70F9108950F931F935C
:10010000E0E0F1E000912401102F03950093240119
:100110000A95110F110FE10FF21D0E94D500018108
:100120000F930E94FE000F9100810F930E94FE002A
:100130000F9102810F930E94FE000F9110951F9363
:100140000E94FE001F9110950E94FA001F910F91CE
:10015000089502E015E00E94DC000895FF93EF93FC
:100160000F93F1E0E0E000E221920A95E9F70F91A8
:10017000EF91FF910895FF93EF930F93F1E0E0E289
:1001800001911191FF93EF93F1E0E0E0110F110F56
:10019000E10FF21D0E94D5000281102B1283EF9116
:1001A000FF910F91EF91FF91089510E8003019F041
:1001B00016950A95E9F7089522272F930E94FE00CD
:1001C0002F912F930E94FE002F9120E8003019F00C
:1001D00026950A95E9F72F930E94FE002F9120E8BB
:1001E000103021F026951A95E9F720952F930E945B
:1001F000FE002F912298229A22980895FF93EF9360
:100200000F93FEB7EDB706810EBD0DB507FFFDCF0D
:080210000F91EF91FF91089599
:00000001FF
