:020000020000FC
:040000000C9422003A
:100040000C94C00008E00EBF0FEF0DBF22241CE28D
:1000500014B910E51CBD10E01DBD00E004BD03E0B7
:1000600005BD01E000936E00E0E8F1E021922082FE
:10007000E2E8F1E02192208220928401EF93FF9345
:10008000E0E8F1E004E000831FE01183E2E8F1E042
:100090000FE0008310E011830E9412010E941F01F3
:1000A000FF91EF9178940E945C000E9412010E94DF
:1000B0001F010E940201F7CFF1E0E2E80081118107
:1000C0000A951395008311830895EF93FF930E947F
:1000D0007500FEB7EDB725812F930E9481002F9107
:1000E0000E94B000FF91EF910895FEB7EDB71F9306
:1000F00010850E9495001F930E9481001F911F91FF
:100100000895FEB7EDB71F932F93138128E0110FC9
:1001100018F40E949C0002C00E94A6002A95B9F71C
:100120000E949C002F911F9108953C9A0E94BA0052
:100130003D9A0E94BA0008953C980E94BA003D98EA
:100140000E94BA003D9A0E94BA0008953C9A0E940B
:10015000BA003D980E94BA003D9A0E94BA000895E4
:100160003C9A0E94BA003D980E94BA003C980E94B6
:10017000BA0008950F9300EA0A95F1F70F910895D8
:100180000F930FB70F93FF93EF931F932F933F930B
:10019000E0E0F1E010E6E10FF21D0091840107704C
:1001A000102F110F110FE10FF21D0E9459012A9813
:1001B00024E000810F930E9460010F9101810F9351
:1001C0000E9460010F9102810F930E9460010F91C4
:1001D00010951F930E9460011F91109530E2E31B60
:1001E000F2092A9531F72A9A009184010395009328
:1001F00084013F912F911F91EF91FF910F910FBFBC
:100200000F9118950F931F932F9306E916E926E98E
:100210002A95F1F71A95D9F70A95C1F72F911F91F1
:100220000F910895FF93EF930F93F1E0E0E000E862
:1002300021920A95E9F70F91EF91FF910895FF93AD
:10024000EF930F931F932F93F1E0E0E8019110815A
:10025000FF93EF930E9444010281102B1283EF91D0
:10026000FF91F1E0E2E801911081FF93EF930E948A
:1002700044010081102B1083EF91FF912F911F916A
:100280000F91EF91FF910895F1E0E0E0183020F038
:10029000185020E4E20FF21D110F110FE10FF21DB3
:1002A000083020F0085020E2E20FF21D0E945901B0
:1002B000089510E8003019F016950A95E9F70895A9
:1002C000FF93EF930F93FEB7EDB706810EBD0DB50B
:0C02D00007FFFDCF0F91EF91FF91089503
:00000001FF
