:020000020000FC
:1000000008E00EBF0FEF0DBF22241CE214B913E568
:100010001CBD02E015E00E941B00FFCFFF93EF9391
:100020000F93F1E0E0E000E221920A95E9F70F91E9
:10003000EF91FF91089522272F930E943D002F9169
:100040002F930E943D002F9120E8003019F0269553
:100050000A95E9F72F930E943D002F9120E8103078
:1000600021F026951A95E9F720952F930E943D00DF
:100070002F912298229A229808950F93FEB7EDB7F8
:0E00800004810EBD0DB507FFFDCF0F91089551
:00000001FF
