:020000020000FC
:040000000C94EA0171
:100040000C941D0130E8003019F036950A95E9F757
:100050000895FF93EF930F93FEB7EDB706810EBDA2
:100060000DB507FFFDCF0F91EF91FF91089500E1CE
:100070001FEF2FEF2A95F1F71A95D9F70A95C1F7D7
:100080000895102F02950F701F7008950295012B8F
:10009000089500910402F1E0E1E81091C10121917D
:1000A0002017B9F31A95D9F7F1E0E2EC10910202AA
:1000B0002191201771F31A95D9F70093030208953F
:1000C000F1E0E1E8D1E0C2EC00811881011779F09C
:1000D000209102021991011751F02A95D9F7D1E028
:1000E000C2EC0191011719F02A95D9F700C0F1E08F
:1000F000E1E80081188120910302201739F4009172
:10010000C10103950093C1010E944900211739F4F0
:100110001091C1011395109302020E9449000895A5
:10012000F1E0E1E800810E944100202F312F0181A0
:100130000E944100021751F4028102950F702017AE
:1001400029F0201710F42A9501C0239502810F7021
:10015000301729F0301710F43A9501C03395022F6B
:10016000132F0E9446000E94C601008308950CE2EE
:1001700004B900E50CBD10E01DBD07E800937A004E
:1001800000E600937C0000E004BD03E005BD01E053
:1001900000936E00E1E8F1E02082E2ECF1E02082E1
:1001A000E3E0F2E02082209280010895FF93EF9334
:1001B000F1E0E0E000E821920A95E9F7EF91FF9184
:1001C0000895FF93EF93F1E0E1E84091C1010191BF
:1001D0000E9406010A81302B3A834A95C1F7F1E06B
:1001E000E2EC4091020201910E9406010881302B4D
:1001F00038834A95C1F7F2E0E3E000810E940601EE
:100200000981302B3983EF91FF910895D1E0C0E04F
:100210000E944100183020F0185020E4C20FD21D77
:10022000110F110FC10FD21D083020F0085020E22D
:10023000C20FD21D0E9422000895FF93EF930F93E7
:100240001F932F933F930FB70F93E0E0F1E010E679
:10025000E10FF21D009180010770102F110F110F97
:10026000E10FF21D0E9422002A9824E000810F93E2
:100270000E9429000F9101810F930E9429000F9184
:1002800002810F930E9429000F9130953F930E94A5
:1002900029003F91309510E2E11BF2092A9531F7D0
:1002A0002A9A009180010395009380010091040235
:1002B0000395009304020F910FBF3F912F911F915F
:1002C0000F91EF91FF91189500917A0000640093CF
:1002D0007A0000E6022B00937C0000917A0006FD74
:1002E000FCCF30917900089523E00E9464010091D1
:1002F00081010E944100303C10F0039503C030346E
:1003000008F40A950E94C6010E94460000938101EC
:1003100020E00E946401009181010E944100303C74
:1003200010F0139503C0303408F41A950E94D001E0
:100330000E94460000938101089521E00E9464011B
:100340000091C2010E944100303C10F0039503C0AF
:10035000303408F40A950E94C6010E9446000093BA
:10036000C20122E00E9464010091C2010E9441008A
:10037000303C10F0139503C0303408F41A950E94F5
:10038000D0010E9446000093C20108950F3F19F06A
:10039000003119F004C00FE002C000E000C0089571
:1003A0001F3F19F0103119F004C01FE002C010E027
:1003B00000C008950F931F93F1E0E1E80091C1019F
:1003C0000A95E00FF21D129111830A95E1F71F9132
:1003D0000F91089508E00EBF0FEF0DBF22240E9479
:1003E000B700E1E8F1E007ED008307EE018307EFD6
:1003F000028303E00093C101E2ECF1E008E2008334
:1004000008E1018308E0028303E00093020207E7AA
:10041000009303020E94D6000E94E10078940E949B
:1004200049000E9474010E94DA010E949D010E940D
:10043000D6000E94E1000E9437000E946000F1CFC8
:00000001FF
