:020000020000FC
:040000000C942D022D
:100040000C94100130E8003019F036950A95E9F764
:100050000895FF93EF930F93FEB7EDB706810EBDA2
:100060000DB507FFFDCF0F91EF91FF91089502E1CC
:100070001FEF2FEF2A95F1F71A95D9F70A95C1F7D7
:100080000895102F02950F701F7008950295012B8F
:10009000089500910402F1E0E1E81091C10121917D
:1000A0002017B9F31A95D9F7F1E0E2EC10910202AA
:1000B0002191201771F31A95D9F70093030208953F
:1000C000009181011091C2010117B9F0F1E0E2EC59
:1000D00000918101209102021191011771F02A957E
:1000E000D9F7F1E0E1E80091C2012091C10111913D
:1000F000011719F02A95D9F70CC00E9437000E9409
:1001000037000E9437000E9437000E9437000C948D
:100110002D022091030200918101201749F40091E2
:10012000C10110E4011303950093C1010E9449002D
:100130000091C201201749F40091020210E401135A
:100140000395009302020E94490008950CE204B94D
:1001500000E50CBD10E01DBD07E800937A0000E645
:1001600000937C0000E004BD03E005BD01E00093C6
:100170006E00E1E8F1E02082E2ECF1E02082E3E0D1
:10018000F2E02082209280010895FF93EF93F1E046
:10019000E0E000E821920A95E9F7EF91FF910895D8
:1001A000FF93EF93DF93CF93F1E0E1E84091C1013A
:1001B00001910E94F9000A81302B3A834A95C1F7D8
:1001C000F1E0E2EC4091020201910E94F900088105
:1001D000302B38834A95C1F7F2E0E3E000810E94BA
:1001E000F9000981302B3983CF91DF91EF91FF9195
:1001F0000895D1E0C0E00E944100183020F018506E
:1002000020E4C20FD21D110F110FC10FD21D0830F3
:1002100020F0085020E2C20FD21D0E942200089553
:10022000FF93EF930F931F932F933F930FB70F936A
:10023000E0E0F1E010E6E10FF21D009180010770AF
:10024000102F110F110FE10FF21D0E9422002A98AA
:1002500024E000810F930E9429000F9101810F93E8
:100260000E9429000F9102810F930E9429000F9193
:1002700030953F930E9429003F91309510E2E11B99
:10028000F2092A9531F72A9A00918001039500938B
:100290008001009104020395009304020F910FBFA7
:1002A0003F912F911F910F91EF91FF91189500E6CB
:1002B000022B00937C0000917A00006400937A0086
:1002C00000917A0006FDFCCF30917900089522E07C
:1002D0000E945701009181010E944100303C10F0C2
:1002E000039503C0303408F40A950E94C1010E94AE
:1002F00046000093810123E00E9457010091810193
:100300000E944100303C10F0139503C0303408F4D3
:100310001A950E94CB010E94460000938101F1E0F2
:10032000E1E80E94EE01089520E00E94570100914B
:10033000C2010E944100303C10F0039503C03034EC
:1003400008F40A950E94C1010E9446000093C20170
:1003500021E00E9457010091C2010E944100303CFF
:1003600010F0139503C0303408F41A950E94CB01A5
:100370000E9446000093C201F1E0E2EC0E94EE010F
:1003800008950F3F19F0003119F004C00FE002C0CA
:1003900000E000C008951F3F19F0103119F004C0AB
:1003A0001FE002C010E000C00895FF93EF93F1E05A
:1003B000E1E80091C1010E94E601F1E0E2EC009168
:1003C00002020E94E601EF91FF9108950A95E00F65
:1003D000F21D129111830A95E1F7089500811181B0
:1003E0000117D1F51281029512950F701F70011738
:1003F000A9F0003021F41F3011F401E00FC00F30DC
:1004000021F4103011F40EE009C0011720F40A9510
:100410000E94C10103C003950E94C1011081228185
:100420001F702F701217A9F0103021F42F3011F423
:1004300011E00FC01F3021F4203011F41EE009C07C
:10044000121720F41A950E94CB0103C013950E9445
:10045000CB010E9446000083089508E00EBF0FEF15
:100460000DBF22240E94A600E2ECF1E007ED00831C
:1004700007EE018307EF028303E00093C101E1E887
:10048000F1E008E2008308E1018308E0028303E071
:10049000009302020E94C5000E94D00078940E943E
:1004A00049000E94D5010E9467010E9494010E94A8
:1004B000C5000E94D0000E9437000E946000F1CF6A
:00000001FF
