:020000020000FC
:040000000C946F01EC
:100040000C94A70030E8003019F036950A95E9F7CE
:100050000895FF93EF930F93FEB7EDB706810EBDA2
:100060000DB507FFFDCF0F91EF91FF91089508E0C7
:100070001FEF2FEF2A95F1F71A95D9F70A95C1F7D7
:100080000895102F02950F701F7008950295012B8F
:1000900008950CE204B900E50CBD10E01DBD07E8B1
:1000A00000937A0000E600937C0000E004BD03E0CA
:1000B00005BD01E000936E00E1E8F1E02082E2EC92
:1000C000F1E02082E3E0F2E02082209280010895B6
:1000D000FF93EF93F1E0E0E000E821920A95E9F761
:1000E000EF91FF910895FF93EF93F1E0E1E8019123
:1000F0000E9490000A81302B3A83F1E0E2EC0191FA
:100100000E9490000881302B3883F2E0E3E0008108
:100110000E9490000981302B3983EF91FF9108955F
:10012000D1E0C0E00E944100183020F0185020E4D7
:10013000C20FD21D110F110FC10FD21D083020F0B8
:10014000085020E2C20FD21D0E9422000895FF93A2
:10015000EF930F931F932F933F930FB70F93E0E00D
:10016000F1E010E6E10FF21D009180010770102F01
:10017000110F110FE10FF21D0E9422002A9824E0B6
:1001800000810F930E9429000F9101810F930E941B
:1001900029000F9102810F930E9429000F91309541
:1001A0003F930E9429003F91309510E2E11BF20934
:1001B0002A9531F72A9A00918001039500938001D6
:1001C0000F910FBF3F912F911F910F91EF91FF91D1
:1001D000189500917A00006400937A0000E6022BE3
:1001E00000937C0000917A0006FDFCCF30917900ED
:1001F000089523E00E94E900009181010E944100DE
:10020000303C10F0039503C0303408F40A950E9486
:100210004B010E9446000093810120E00E94E9000A
:10022000009181010E944100303C10F0139503C001
:10023000303408F41A950E9455010E94460000933C
:100240008101089521E00E94E9000091C2010E940D
:100250004100303C10F0039503C0303408F40A9597
:100260000E944B010E9446000093C20122E00E94BE
:10027000E9000091C2010E944100303C10F013954A
:1002800003C0303408F41A950E9455010E944600BC
:100290000093C20108950F3F19F0003119F004C016
:1002A0000FE002C000E000C008951F3F19F01031B8
:1002B00019F004C01FE002C010E000C008950F93C1
:1002C0001F93F1E0E1E80091C1010A95E00FF21DF2
:1002D000129111830A95E1F71F910F91089508E09B
:1002E0000EBF0FEF0DBF22240E94490007E00093CC
:1002F000810107EF0093C20107E7009303020E9408
:1003000068000E94730078940E94F9000E94220104
:0E0310000E9468000E9473000E943700F5CF23
:00000001FF
