:020000020000FC
:040000000C94430316
:100040000C940A010E944E00E1E8F1E008E400830C
:1000500008E3018308E2028308E1038308E00483E4
:1000600005E00093C101002701600093C201E3ECA9
:10007000F1E007EB008307EC018307ED028307EE55
:10008000038307EF048305E0009303020027046065
:100090000093040278940E9494000895E1E8F1E04E
:1000A00000E421920A95E9F72092C101E3ECF1E026
:1000B00000E421920A95E9F720920302E5E0F2E0DC
:1000C00020822092800120920702089530E80030BB
:1000D00019F036950A95E9F70895FF93EF930F937A
:1000E000FEB7EDB706810EBD0DB507FFFDCF0F9131
:1000F000EF91FF91089508EC10E220E22A95F1F7C4
:100100001A95D9F70A95C1F708950F930E947B00BD
:100110000F910A95D1F70895102F02950F701F7057
:1001200008950295012B089500910602F1E0E1E89F
:100130001091C10121912017B9F31A95D9F7F1E077
:10014000E3EC109103022191201771F31A95D9F76E
:100150000093050208950CE204B900E50CBD10E01F
:100160001DBD07E800937A0000E600937C0000E0E4
:1001700004BD03E005BD01E000936E000895FF9308
:10018000EF93F1E0E0E000E821920A95E9F7EF91C2
:10019000FF910895FF93EF93DF93CF93F1E0E1E8B0
:1001A0004091C10101910E94F3000A81302B3A83F2
:1001B0004A95C1F7F1E0E3EC4091030201910E94FE
:1001C000F3000881302B38834A95C1F7F2E0E5E06F
:1001D00000810E94F3000981302B3983CF91DF9198
:1001E000EF91FF910895D1E0C0E00E948C0018309B
:1001F00020F0185020E4C20FD21D110F110FC10FB3
:10020000D21D083020F0085020E2C20FD21D0E94FB
:1002100066000895FF93EF930F931F932F933F93DF
:100220000FB70F93E0E0F1E010E6E10FF21D00914F
:1002300080010770102F110F110FE10FF21D0E94A6
:1002400066002A9824E000810F930E946D000F91B0
:1002500001810F930E946D000F9102810F930E9404
:100260006D000F9130953F930E946D003F91309546
:1002700010E2E11BF2092A9531F72A9A00918001D8
:1002800003950093800100910602039500930602F6
:100290000F910FBF3F912F911F910F91EF91FF9100
:1002A000189522E00091C2010E9460010093C201F2
:1002B00020E0009104020E9460010093040208956E
:1002C0000F9311270E948801303C28F0116000E054
:1002D000013039F010C0303420F4146000E00030F8
:1002E00051F023950E948801303C10F0126003C049
:1002F000303408F418600F91202F212B2F702F30ED
:1003000031F02A3021F0253011F01211012F08951B
:1003100000E6022B00937C0000917A0000640093B9
:100320007A0000917A0006FDFCCF309179000895A3
:100330000E94BA01009181012091C2010E94AB018B
:10034000009381010091C301209104020E94AB013E
:100350000093C30108950E948C0020FD039522FDA7
:100360000A9521FD139523FD1A950E94D3010E9441
:1003700091000895FF93EF93F1E0E1E80091C1014E
:100380000E94CB01F1E0E3EC009103020E94CB015B
:10039000EF91FF9108950A95E00FF21D12911183DC
:1003A0000A95E1F708950F3F19F0003119F003C0E5
:1003B0000FE001C000E01F3F19F0103119F003C039
:1003C0001FE001C010E008950591003081F00E9407
:1003D000F30010910702123031F00A81302B3A837A
:1003E000133009F003C00881302B3883EDCF089516
:1003F000363738393A4A59584847565676777879D1
:100400007A8A88869A989696B6B7B8B9BAC6CAD77D
:10041000D8D90000161718191A26282A373956571E
:1004200058595A667676969798999AA6B6B7B8B9F3
:10043000BABAD6D7D8D9DAE6E8EAF6F8FA003A46F0
:100440004748494A5A5A767778797A7A96979899A6
:100450009AA6A8AAB6B8BA000E9431020E947002F9
:100460000895009181011091C301011769F1F1E034
:10047000E1E83196009181012091C1012A950E9405
:100480008D02321129C0F1E0E3EC31960091C301F5
:10049000209103022A950E948D02321119C0F1E0C9
:1004A000E3EC00918101209103020E948D02321140
:1004B00013C0F1E0E1E80091C3012091C1010E9465
:1004C0008D02321105C00BC003E00093070207C084
:1004D00001E00093070203C002E0009307020895C1
:1004E0002091050200918101201729F00091C3019C
:1004F000201749F011C00091C10110E401130395C8
:100500000093C10107C00091030210E40113039599
:10051000009303020E94940008951191011719F0AD
:100520002A95D9F702C03FEF01C03327089501E0B3
:1005300004B902E300930A020E9424030E942403E8
:100540000E9412030E9412030E941B030E941B03BD
:100550000E9412030E9409030E9409030E940003E3
:100560000E9400030E94F7020E94F7020E942403E7
:100570000E9412030E9412030E9409030E940903B1
:100580000E9400030E9400030E94F7020E941203CF
:100590000E9412030E9409030E9409030E940003A3
:1005A0000E9400030E94F7020E9424030E94240379
:1005B0000E9412030E9412030E941B030E941B034D
:1005C0000E9412030E941B030E941B030E9412033D
:1005D0000E9409030E9409030E9400030E94000375
:1005E0000E94F7020E94F7020E94240308950CE380
:1005F0000093080201E0009309020E942D03089570
:1006000002E30093080201E0009309020E942D0317
:10061000089504E60093080201E0009309020E9495
:100620002D0308950AE50093080201E000930902F2
:100630000E942D03089500E50093080201E0009355
:1006400009020E942D03089508EC0093080201E0BE
:10065000009309020E942D03089540910A0262E06E
:1006600000910802299A0E943D0329980E943D03A7
:100670006A95B1F74A9599F7089514E61A95F1F736
:100680000A95D9F7089508E00EBF0FEF0DBF222499
:100690000E94AB000E9422000E94BF000E94CA007C
:1006A0000E9451010E9498010E94BF000E94CA004E
:1006B0000E947B000E947B000E942C020091070296
:1006C000021509F4EDCF0EE10E94850000910702AA
:1006D000033021F0013039F0023051F00E94BF00A8
:1006E000F4E0EEE309C00E94BF00F3E0E0EF04C0D5
:1006F0000E94BF00F4E0E4E10E94E40104E60E94ED
:0607000085000C944A0381
:00000001FF
