:020000020000FC
:040000000C94AA02B0
:100040000C94EE00E1E8F1E008E2008308E10183AE
:1000500008E0028303E00093C101002701600093E0
:10006000C201E3ECF1E007ED008307EE018307EF47
:10007000028303E00093030200270460009304025C
:1000800078940E946B00089530E8003019F036959E
:100090000A95E9F70895FF93EF930F93FEB7EDB735
:1000A00006810EBD0DB507FFFDCF0F91EF91FF91BA
:1000B00008950AE01FEF2FEF2A95F1F71A95D9F767
:1000C0000A95C1F70895102F02950F701F700895BB
:1000D0000295012B089500910602F1E0E1E81091EC
:1000E000C10121912017B9F31A95D9F7F1E0E3EC9A
:1000F000109103022191201771F31A95D9F70093FB
:10010000050208950CE204B900E50CBD10E01DBD28
:1001100007E800937A0000E600937C0000E004BD4D
:1001200003E005BD01E000936E00E1E8F1E020820C
:10013000E3ECF1E02082E5E0F2E020822092800111
:10014000209207020895FF93EF93F1E0E0E000E8CA
:1001500021920A95E9F7EF91FF910895FF93EF93AC
:10016000DF93CF93F1E0E1E84091C10101910E945A
:10017000D7000A81302B3A834A95C1F7F1E0E3ECCE
:100180004091030201910E94D7000881302B3883EF
:100190004A95C1F7F2E0E5E000810E94D7000981AD
:1001A000302B3983CF91DF91EF91FF910895D1E00A
:1001B000C0E00E946300183020F0185020E4C20F05
:1001C000D21D110F110FC10FD21D083020F00850A1
:1001D00020E2C20FD21D0E9444000895FF93EF93C6
:1001E0000F931F932F933F930FB70F93E0E0F1E02E
:1001F00010E6E10FF21D009180010770102F110F22
:10020000110FE10FF21D0E9444002A9824E00081A2
:100210000F930E944B000F9101810F930E944B009E
:100220000F9102810F930E944B000F9130953F93E5
:100230000E944B003F91309510E2E11BF2092A9594
:1002400031F72A9A00918001039500938001009173
:1002500006020395009306020F910FBF3F912F9165
:100260001F910F91EF91FF91189522E00091C2012B
:100270000E9444010093C20120E0009104020E9408
:1002800044010093040208950F9311270E945D0119
:10029000303C10F0116003C0303408F41460239532
:1002A0000E945D01303C10F0126003C0303408F44D
:1002B00018600F911211012F089500E6022B009390
:1002C0007C0000917A00006400937A0000917A002B
:1002D00006FDFCCF3091790008950E948F010091B6
:1002E00081012091C2010E9480010093810100914F
:1002F000C301209104020E9480010093C30108956C
:100300000E94630020FD039522FD0A9521FD1395AF
:1003100023FD1A950E94A8010E9468000895FF938A
:10032000EF93F1E0E1E80091C1010E94A001F1E04A
:10033000E3EC009103020E94A001EF91FF91089568
:100340000A95E00FF21D129111830A95E1F70895C5
:100350000F3F19F0003119F004C00FE002C000E0B7
:1003600000C01F3F19F0103119F004C01FE002C097
:1003700010E000C00895009181011091C3010117A0
:1003800099F1F1E0E3EC00918101209103021191D8
:10039000011791F12A95D9F7F1E0E1E80091C30145
:1003A0002091C1011191011719F12A95D9F72091D6
:1003B000050200918101201729F00091C301201747
:1003C00049F011C00091C10110E40113039500939D
:1003D000C10107C00091030210E4011303950093CB
:1003E00003020E946B000BC003E00093070207C0EA
:1003F00001E00093070203C002E0009307020895A2
:100400000FEF04B900E400930A020E948C020E94DC
:100410008C020E947A020E947A020E9483020E9449
:1004200083020E947A020E9471020E9471020E945D
:1004300068020E9468020E945F020E945F020E949E
:100440008C020E947A020E947A020E9471020E942B
:1004500071020E9468020E9468020E945F020E946C
:100460007A020E947A020E9471020E9471020E9426
:1004700068020E9468020E945F020E948C020E9431
:100480008C020E947A020E947A020E9483020E94D9
:1004900083020E947A020E9483020E9483020E94C9
:1004A0007A020E9471020E9471020E9468020E94F8
:1004B00068020E945F020E945F020E948C020CE3AD
:1004C0000093080201E0009309020E94950208953A
:1004D00002E30093080201E0009309020E949502E2
:1004E000089504E60093080201E0009309020E94C7
:1004F000950208950AE50093080201E000930902BD
:100500000E949502089500E50093080201E000931F
:1005100009020E949502089508EC0093080201E088
:10052000009309020E949502089540910A0262E038
:1005300001E0299A0E94A40229980E94A4026A95C7
:10054000B9F74A95A1F708951EE11A95F1F70A95B2
:10055000D9F7089508E00EBF0FEF0DBF22240E94C7
:1005600082000E9422000E94A3000E94AE000E940E
:10057000BB010E9435010E946D010E94590000914B
:100580000702021509F4EFCF0E9459000E9459009A
:100590000E9459000E945900033021F0013011F0EF
:0805A000023001F00C94AA02E4
:00000001FF
