:020000020000FC
:040000000C94170144
:100040000C94970030E8003019F036950A95E9F7DE
:100050000895FF93EF930F93FEB7EDB706810EBDA2
:100060000DB507FFFDCF0F91EF91FF91089500E4CB
:100070001FEF2FEF2A95F1F71A95D9F70A95C1F7D7
:100080000895102F02950F701F7008950295012B8F
:1000900008950CE204B900E50CBD10E01DBD07E8B1
:1000A00000937A0000E600937C0000E004BD03E0CA
:1000B00005BD01E000936E00E0E8F1E02082E1EC94
:1000C000F1E02082E2E0F2E0208220920302089533
:1000D000FF93EF93F1E0E0E000E821920A95E9F761
:1000E000EF91FF910895FF93EF93F1E0E0E8019124
:1000F0000E9480000A81302B3A83EF91FF9108958E
:10010000D1E0C0E00E944100183020F0185020E4F7
:10011000C20FD21D110F110FC10FD21D083020F0D8
:10012000085020E2C20FD21D0E94220008950F93B2
:100130001F932F933F930FB70F93FF93EF93E0E03D
:10014000F1E010E6E10FF21D009103020770102F9D
:10015000110F110FE10FF21D0E9422002A9824E0D6
:1001600000810F930E9429000F9101810F930E943B
:1001700029000F9102810F930E9429000F91109581
:100180001F930E9429001F91109530E2E31BF20992
:100190002A9531F72A9A00910302039500930302EE
:1001A000EF91FF910F910FBF3F912F911F910F91F1
:1001B000189500917A00006400937A0000E6022B03
:1001C00000937C0000917A0006FDFCCF309179000D
:1001D000089522E00E94D900009180010E94410010
:1001E000303C18F003950C940801303410F40A9553
:1001F0000FC023E00E94D900009180010E944100BD
:10020000303C18F013950C940801303408F41A951A
:100210000E940E010E9446000083089504FD00E044
:1002200007FD0FE013FD10E017FD1FE0089508E043
:100230000EBF0FEF0DBF22240E9449000FEF009365
:100240008001E1ECF1E00FEF00830E9468000E9462
:10025000730078940E94E9000E9468000E94730075
:060260000E943700F7CFF9
:00000001FF
