:020000020000FC
:040000000C948F02CB
:100040000C940701E1E8F1E008E4008308E3018390
:1000500008E2028308E1038308E0048305E00093DB
:10006000C101002701600093C201E3ECF1E007EB5E
:10007000008307EC018307ED028307EE038307EF9C
:10008000048305E000930302002704600093040248
:1000900078940E947A00089530E8003019F036957F
:1000A0000A95E9F70895FF93EF930F93FEB7EDB725
:1000B00006810EBD0DB507FFFDCF0F91EF91FF91AA
:1000C000089504E610E220E22A95F1F71A95D9F78F
:1000D0000A95C1F708950F930E9461000F910A9548
:1000E000D1F70895102F02950F701F700895029593
:1000F000012B089500910602F1E0E1E81091C101A1
:1001000021912017B9F31A95D9F7F1E0E3EC10919A
:1001100003022191201771F31A95D9F70093050274
:1001200008950CE204B900E50CBD10E01DBD07E820
:1001300000937A0000E600937C0000E004BD03E039
:1001400005BD01E000936E00E1E8F1E000E42192DA
:100150000A95E9F72092C101E3ECF1E000E4219275
:100160000A95E9F720920302E5E0F2E0208220926E
:100170008001209207020895FF93EF93F1E0E0E001
:1001800000E821920A95E9F7EF91FF910895FF9316
:10019000EF93DF93CF93F1E0E1E84091C10101914A
:1001A0000E94F0000A81302B3A834A95C1F7F1E0B2
:1001B000E3EC4091030201910E94F0000881302B92
:1001C00038834A95C1F7F2E0E5E000810E94F00033
:1001D0000981302B3983CF91DF91EF91FF91089501
:1001E000D1E0C0E00E947200183020F0185020E4E6
:1001F000C20FD21D110F110FC10FD21D083020F0F8
:10020000085020E2C20FD21D0E944C000895FF93B7
:10021000EF930F931F932F933F930FB70F93E0E04C
:10022000F1E010E6E10FF21D009180010770102F40
:10023000110F110FE10FF21D0E944C002A9824E0CB
:1002400000810F930E9453000F9101810F930E9430
:1002500053000F9102810F930E9453000F9130952C
:100260003F930E9453003F91309510E2E11BF20949
:100270002A9531F72A9A0091800103950093800115
:10028000009106020395009306020F910FBF3F9164
:100290002F911F910F91EF91FF91189522E00091FE
:1002A000C2010E945D010093C20120E0009104029E
:1002B0000E945D010093040208950F9311270E948C
:1002C0008001303C10F011600EC0303410F4146026
:1002D0000AC023950E948001303C10F0126003C0D8
:1002E000303408F418600F91202F212B2F702F30FD
:1002F00031F02A3021F0253011F01211012F08952C
:1003000000E6022B00937C0000917A0000640093C9
:100310007A0000917A0006FDFCCF309179000895B3
:100320000E94B201009181012091C2010E94A301AB
:10033000009381010091C301209104020E94A30156
:100340000093C30108950E94720020FD039522FDD1
:100350000A9521FD139523FD1A950E94CB010E9459
:1003600077000895FF93EF93F1E0E1E80091C10178
:100370000E94C301F1E0E3EC009103020E94C3017B
:10038000EF91FF9108950A95E00FF21D12911183EC
:100390000A95E1F708950F3F19F0003119F003C0F5
:1003A0000FE001C000E01F3F19F0103119F003C049
:1003B0001FE001C010E008950591003081F00E9417
:1003C000F00010910702123031F00A81302B3A838D
:1003D000133009F003C00881302B3883EDCF089526
:1003E000363738393A4A59584847565676777879E1
:1003F0007A8A88869A989696B6B7B8B9BAC6CAD78E
:10040000D8D90000161718191A26282A373956572E
:1004100058595A667676969798999AA6B6B7B8B903
:10042000BABAD6D7D8D9DAE6E8EAF6F8FA003A4600
:100430004748494A5A5A767778797A7A96979899B6
:100440009AA6A8AAB6B8BA000E9429020E94680219
:100450000895009181011091C301011769F1F1E044
:10046000E1E83196009181012091C1012A950E9415
:100470008502321129C0F1E0E3EC31960091C3010D
:10048000209103022A950E948502321119C0F1E0E1
:10049000E3EC00918101209103020E948502321158
:1004A00013C0F1E0E1E80091C3012091C1010E9475
:1004B0008502321105C00BC003E00093070207C09C
:1004C00001E00093070203C002E0009307020895D1
:1004D0002091050200918101201729F00091C301AC
:1004E000201749F011C00091C10110E401130395D8
:1004F0000093C10107C00091030210E401130395AA
:10050000009303020E947A0008951191011719F0D7
:100510002A95D9F702C03FEF01C03327089508E0BC
:100520000EBF0FEF0DBF22240E9491000E942200F7
:100530000E94BC000E94C7000E9424020E94610029
:100540000E944E010E9461000E944E010E946100C3
:100550000E944E010E9461000E94900100910702DA
:10056000021509F4E5CF0EE10E946B00009107022D
:10057000033021F0013039F0023051F00E94BC000C
:10058000F4E0EEE209C00E94BC00F3E0E0EE04C03B
:100590000E94BC00F4E0E4E00E94DC0104E60E945A
:0605A0006B000C948F02B9
:00000001FF
